:020000040800F2
:10000000780600200D0200084B0200084D0200088F
:100010004F020008510200085302000800000000CF
:100020000000000000000000000000005502000871
:100030005702000800000000590200085B02000897
:100040005D0200085D0200085D0200085D02000814
:100050005D0200085D0200085D0200085D02000804
:100060005D0200085D0200085D0200085D020008F4
:100070005D0200085D0200085D0200085D020008E4
:100080005D0200085D0200085D0200085D020008D4
:100090005D0200085D0200085D0200085D020008C4
:1000A0005D0200085D0200085D0200085D020008B4
:1000B0005D0200085D020008410400085D020008BE
:1000C0005D0200085D0200085D0200085D02000894
:1000D0005D0200085D0200085D0200085D02000884
:1000E0005D0200085D0200085D0200085D02000874
:1000F0005D0200085D0200085D0200085D02000864
:100100005D0200085D0200085D0200085D02000853
:100110005D0200085D0200085D0200085D02000843
:100120005D0200085D0200085D0200085D02000833
:100130005D0200085D0200085D0200085D02000823
:100140005D0200085D0200085D0200085D02000813
:100150005D0200085D0200085D0200085D02000803
:100160005D0200085D0200085D0200085D020008F3
:100170005D0200085D0200085D020008000000004A
:100180005D0200085D02000800F002F800F02EF8A1
:100190000AA090E8000C82448344AAF10107DA45E2
:1001A00001D100F023F8AFF2090EBAE80F0013F006
:1001B000010F18BFFB1A43F001031847A805000000
:1001C000B80500000023002400250026103A28BFAF
:1001D00078C1FBD8520728BF30C148BF0B607047B9
:1001E0001FB500F0B2FA1FBD10B510BD00F057F8F2
:1001F0001146FFF7F5FF00F063FA00F075F803B45D
:10020000FFF7F2FF03BC00F07DF800001748184923
:10021000184B99423CBF50F8042B41F8042BF8D3FB
:10022000154B16494FF000028B4238BF43F8042BA0
:10023000FAD3DFF84C00016841F470010160BFF3AC
:100240004F8FBFF36F8F0F480047FEE7FEE7FEE7D3
:10025000FEE7FEE7FEE7FEE7FEE7FEE7FEE700005B
:1002600009480A490A4A0B4B704700007407000806
:100270000000002000000020000000207806002080
:1002800088ED00E089010008780000207806002051
:10029000780200207802002070477047704775464A
:1002A00000F02CF8AE4605006946534620F00700E2
:1002B000854618B020B5FFF7D3FFBDE820404FF0CA
:1002C00000064FF000074FF000084FF0000BAC465F
:1002D000ACE8C009ACE8C009ACE8C009ACE8C009AA
:1002E00021F007018D46704710B50446AFF300803A
:1002F0002046BDE81040FFF782BF0000004870476D
:100300000000002001491820ABBEFEE726000200D5
:100310007047000080B582B041F24C01C4F2020186
:10032000086840F00200086040F20041C4F6000195
:10033000086820F440500860086840F400500860E5
:1003400040F20C41C4F60001086820F440500860F7
:1003500040F22041C4F60001086820F07060086097
:10036000086840F00070086041F25801C4F20201D0
:10037000086840F00400086040F62801C4F200015B
:100380000F20086040F60001C4F20001086840F048
:100390008000086040F62C02C4F200024FF6FF70A5
:1003A000106040F61802C4F20002106820F003004A
:1003B0001060106840F00100106040F62002C4F2A6
:1003C0000002106840F002001060106840F0080061
:1003D0001060106840F00100106040F60C02C4F29A
:1003E0000002106840F002001060106840F40070D5
:1003F0001060106840F00100106040F61402C4F272
:100400000002106840F00100106040F61002C4F2D3
:100410000002106820F001001060086820F0100051
:100420000860086840F0010008601E20019000F09C
:100430000DF90198022100F021F902B080BD000001
:1004400040F61000C4F200000068C00780B1FFE76A
:1004500040F61001C4F20001086820F001000860B5
:1004600040F26C01C2F20001086801300860FFE749
:1004700040F61000C4F2000000688007002842D552
:10048000FFE740F61001C4F20001086820F0020006
:10049000086040F21040C4F60000006840060028E2
:1004A00011D5FFE740F63400C4F20000006840F2C6
:1004B0006801C2F20001086040F26C01C2F2000162
:1004C000002008601EE040F63400C4F2000001681D
:1004D00040F26000C2F200000160006840F26C016E
:1004E000C2F200010968C1EB0141084440F2680111
:1004F000C2F200010968401A40F27001C2F2000124
:100500000860FFE7FFE7704741F24C01C4F20201C7
:10051000086840F0010008604FF09041086820F43E
:1005200040200860086840F4002008600821C4F6F4
:100530000001086840F4402008600C21C4F6000166
:10054000086820F4402008602421C4F600010868EF
:1005500020F0F0000860086840F0100008600421F6
:10056000C4F60001086820F40070086041F26001E0
:10057000C4F20201086840F40060086042F62841B5
:10058000C4F201010F20086042F60041C4F20101EB
:10059000086840F08000086042F62C42C4F2010274
:1005A0004FF6FF70106042F63842C4F201020A2092
:1005B000106042F61842C4F20102106848F6FF7358
:1005C000CFF6FF6318401060106840F400501060D0
:1005D000106840F480401060106840F400601060C3
:1005E00042F62042C4F20102106820F020001060A0
:1005F000106840F01000106042F64442C4F201025C
:10060000106840F40C40106042F61442C4F201023B
:10061000106840F00100106042F60C42C4F2010282
:10062000106840F00100106042F61042C4F201026E
:10063000106820F001001060086820F010000860C9
:10064000086840F0010008607047000081B08DF834
:1006500003009DF9030000280ED4FFE79DF9031065
:1006600001F01F02012090404A094EF20011CEF223
:10067000000141F82200FFE701B0704782B08DF819
:10068000070000919DF9070000280AD4FFE70098B1
:1006900000019DF907104EF20042CEF2000288548C
:1006A0000BE0009800019DF8071001F00F014EF6D5
:1006B0001452CEF200028854FFE702B070470000E7
:1006C00080B582B00020019041F20001C4F2020125
:1006D000086840F480700860FFE741F20000C4F24F
:1006E000020000684005002801D4FFE7F5E741F269
:1006F0000801C4F20201086820F0030008600868DD
:1007000040F001000860FFE741F20800C4F2020077
:10071000006810F00C0F01D1FFE7F5E7FFF7FAFDD5
:10072000FFF7F2FEFFE740F27000C2F2000000683F
:100730004CF60931C8F63D51A0FB0110400940F2CA
:100740006401C2F200010860EDE7F1EE100A4FF615
:10075000FF71C0F2C03120EA010040F04070E1EECC
:10076000100A704774070008000000207806000097
:04077000C4010008B8
:040000050800018965
:00000001FF
