:020000040800F2
:10000000780600202902000867020008690200083B
:100010006B0200086D0200086F020008000000007B
:100020000000000000000000000000007102000855
:100030007302000800000000750200087702000843
:1000400079020008790200087902000879020008A4
:100050007902000879020008790200087902000894
:100060007902000879020008790200087902000884
:100070007902000879020008790200087902000874
:100080007902000879020008790200087902000864
:100090007902000879020008790200087902000854
:1000A0007902000879020008790200087902000844
:1000B0007902000879020008790200087902000834
:1000C0007902000879020008790200087902000824
:1000D0007902000879020008790200087902000814
:1000E0007902000879020008790200087902000804
:1000F00079020008790200087902000879020008F4
:1001000079020008790200087902000879020008E3
:1001100079020008790200087902000879020008D3
:1001200079020008790200087902000879020008C3
:1001300079020008790200087902000879020008B3
:1001400079020008790200087902000879020008A3
:100150007902000879020008790200087902000893
:100160007902000879020008790200087902000883
:1001700079020008790200087902000800000000F6
:10018000790200087902000800F002F800F03CF85B
:100190000AA090E8000C82448344AAF10107DA45E2
:1001A00001D100F031F8AFF2090EBAE80F0013F0F8
:1001B000010F18BFFB1A43F0010318479404000015
:1001C000B4040000103A24BF78C878C1FAD85207A6
:1001D00024BF30C830C144BF04680C6070470000C1
:1001E0000023002400250026103A28BF78C1FBD840
:1001F000520728BF30C148BF0B6070471FB500F0E1
:1002000019FA1FBD10B510BD00F057F81146FFF7E1
:10021000F5FF00F083F900F075F803B4FFF7F2FF83
:1002200003BC00F07DF8000017481849184B9942AC
:100230003CBF50F8042B41F8042BF8D3154B16495A
:100240004FF000028B4238BF43F8042BFAD3DFF89B
:100250004C00016841F470010160BFF34F8FBFF3A0
:100260006F8F0F480047FEE7FEE7FEE7FEE7FEE779
:10027000FEE7FEE7FEE7FEE7FEE7000009480A4961
:100280000A4A0B4B7047000070060008000000206F
:1002900018000020180000207806002088ED00E0FB
:1002A00089010008780000207806002078020020EC
:1002B00078020020704770477047754600F02CF8B0
:1002C000AE4605006946534620F00700854618B043
:1002D00020B5FFF7D3FFBDE820404FF000064FF0F8
:1002E00000074FF000084FF0000BAC46ACE8C00927
:1002F000ACE8C009ACE8C009ACE8C00921F00701CE
:100300008D46704710B50446AFF300802046BDE827
:100310001040FFF782BF000000487047180000201F
:1003200001491820ABBEFEE726000200704700001E
:1003300041F24C01C4F20201086840F0010008607B
:100340004FF09041086820F440600860086840F46D
:10035000006008602021C4F60001086820F47000E5
:100360000860086840F4801008600821C4F60001A5
:10037000086840F4406008600C21C4F60001086879
:1003800020F44060086070474FF09041086820F00A
:1003900003000860086840F0020008602021C4F6ED
:1003A0000001086820F00F000860086840F00100B4
:1003B00008600821C4F60001086840F003000860E6
:1003C0000C21C4F60001086820F0030008607047A3
:1003D00041F25801C4F20201086840F001000860CF
:1003E0004FF08041086820F01000086040F20C00D7
:1003F000C2F2000000682822C4F20002106040F23D
:100400000000C2F2000000682C22C4F2000210605A
:100410001822C4F2000210684FF68F73CFF6FE73F5
:1004200018401060106840F020001060106840F024
:1004300040001060106840F0080010602022C4F2F4
:100440000002106820F002001060106840F0010007
:100450001060106840F0010010603422C4F2000205
:1004600001201060086840F001000860704700003B
:1004700041F25801C4F20201086840F00800086027
:1004800040F60041C4F20001086820F01000086046
:1004900040F21000C2F20000006840F62842C4F2A8
:1004A0000002106040F20400C2F20000006840F652
:1004B0002C42C4F20002106040F61842C4F200025E
:1004C00010684FF68F73CFF6FE73184010601068F7
:1004D00040F020001060106840F04000106010688C
:1004E00040F00800106040F62042C4F2000210689C
:1004F00020F002001060106840F0010010601068E9
:1005000040F00100106040F63442C4F20002642062
:100510001060086840F001000860704780B584B042
:1005200000200390019001200090FFF701FFFFF7EA
:100530002BFFFFF74DFFFFF79BFFFFE73420C4F2CF
:100540000000006840F20001C2F200010968884220
:1005500003D1FFE701200190FFE73420C4F200003F
:100560000068012803D1FFE700200190FFE7019810
:10057000012807D1FFE73421C4F2000108680138DF
:10058000086006E03421C4F2000108680130086008
:10059000FFE740F63440C4F20000006840F2040176
:1005A000C2F200010968884232D1FFE700980130A9
:1005B00000900098012807D1FFE740F63441C4F2CB
:1005C0000001E1200860FFE70098022807D1FFE75B
:1005D00040F63441C4F200017D200860FFE7009836
:1005E000032807D1FFE740F63441C4F200012D2073
:1005F0000860FFE70098042809D1FFE740F634417E
:10060000C4F200017D20086001200090FFE7FFE7B1
:1006100000200290FFE7029840F20801C2F20001B8
:100620000968884205DAFFE7FFE702980130029087
:10063000F1E783E7F1EE100A4FF6FF71C0F2C03127
:1006400020EA010040F04070E1EE100A704700001F
:10065000700600080000002018000000C401000817
:10066000880600081800002060060000E00100086D
:100670002C010000CF070000E80300006300000029
:0806800027000000000000004B
:040000050800018965
:00000001FF
